{
  "_format": "hh-sol-artifact-1",
  "contractName": "DefaultStakableTokenValidator",
  "sourceName": "contracts/DexSwapStakableTokenValidator.sol",
  "abi": [
    {
      "inputs": [
        {
          "internalType": "address",
          "name": "_dexTokenRegistryAddress",
          "type": "address"
        },
        {
          "internalType": "uint256",
          "name": "_dexTokenRegistryListId",
          "type": "uint256"
        },
        {
          "internalType": "address",
          "name": "_dexSwapFactoryAddress",
          "type": "address"
        }
      ],
      "stateMutability": "nonpayable",
      "type": "constructor"
    },
    {
      "anonymous": false,
      "inputs": [
        {
          "indexed": true,
          "internalType": "address",
          "name": "previousOwner",
          "type": "address"
        },
        {
          "indexed": true,
          "internalType": "address",
          "name": "newOwner",
          "type": "address"
        }
      ],
      "name": "OwnershipTransferred",
      "type": "event"
    },
    {
      "inputs": [],
      "name": "dexSwapFactory",
      "outputs": [
        {
          "internalType": "contract IDEXswapFactory",
          "name": "",
          "type": "address"
        }
      ],
      "stateMutability": "view",
      "type": "function"
    },
    {
      "inputs": [],
      "name": "dexTokenRegistry",
      "outputs": [
        {
          "internalType": "contract IDEXTokenRegistry",
          "name": "",
          "type": "address"
        }
      ],
      "stateMutability": "view",
      "type": "function"
    },
    {
      "inputs": [],
      "name": "dexTokenRegistryListId",
      "outputs": [
        {
          "internalType": "uint256",
          "name": "",
          "type": "uint256"
        }
      ],
      "stateMutability": "view",
      "type": "function"
    },
    {
      "inputs": [],
      "name": "owner",
      "outputs": [
        {
          "internalType": "address",
          "name": "",
          "type": "address"
        }
      ],
      "stateMutability": "view",
      "type": "function"
    },
    {
      "inputs": [],
      "name": "renounceOwnership",
      "outputs": [],
      "stateMutability": "nonpayable",
      "type": "function"
    },
    {
      "inputs": [
        {
          "internalType": "address",
          "name": "_dexSwapFactoryAddress",
          "type": "address"
        }
      ],
      "name": "setDexSwapFactory",
      "outputs": [],
      "stateMutability": "nonpayable",
      "type": "function"
    },
    {
      "inputs": [
        {
          "internalType": "address",
          "name": "_dexTokenRegistryAddress",
          "type": "address"
        }
      ],
      "name": "setDexTokenRegistry",
      "outputs": [],
      "stateMutability": "nonpayable",
      "type": "function"
    },
    {
      "inputs": [
        {
          "internalType": "uint256",
          "name": "_dexTokenRegistryListId",
          "type": "uint256"
        }
      ],
      "name": "setDexTokenRegistryListId",
      "outputs": [],
      "stateMutability": "nonpayable",
      "type": "function"
    },
    {
      "inputs": [
        {
          "internalType": "address",
          "name": "newOwner",
          "type": "address"
        }
      ],
      "name": "transferOwnership",
      "outputs": [],
      "stateMutability": "nonpayable",
      "type": "function"
    },
    {
      "inputs": [
        {
          "internalType": "address",
          "name": "_stakableTokenAddress",
          "type": "address"
        }
      ],
      "name": "validateToken",
      "outputs": [],
      "stateMutability": "view",
      "type": "function"
    }
  ],
  "bytecode": "0x608060405234801561001057600080fd5b50604051610dbc380380610dbc83398101604081905261002f91610212565b600080546001600160a01b031916339081178255604051909182917f8be0079c531659141344cd1fd0a4f28419497f9722a3daafe3b4186f6b6457e0908290a3506001600160a01b0383166100df5760405162461bcd60e51b815260206004820152603f6024820152600080516020610d9c83398151915260448201527f2d6164647265737320746f6b656e20726567697374727920616464726573730060648201526084015b60405180910390fd5b600082116101555760405162461bcd60e51b815260206004820152603460248201527f44656661756c745374616b61626c65546f6b656e56616c696461746f723a206960448201527f6e76616c696420746f6b656e206c69737420696400000000000000000000000060648201526084016100d6565b6001600160a01b0381166101bf5760405162461bcd60e51b81526020600482015260386024820152600080516020610d9c83398151915260448201527f2d6164647265737320666163746f72792061646472657373000000000000000060648201526084016100d6565b600180546001600160a01b039485166001600160a01b0319918216179091556002929092556003805491909316911617905561024d565b80516001600160a01b038116811461020d57600080fd5b919050565b600080600060608486031215610226578283fd5b61022f846101f6565b925060208401519150610244604085016101f6565b90509250925092565b610b408061025c6000396000f3fe608060405234801561001057600080fd5b506004361061009e5760003560e01c80639532b6ab116100665780639532b6ab146101145780639723733714610127578063d6d4e0231461013a578063f2fde38b1461014d578063f7b4deda1461016057600080fd5b80633c8821de146100a357806355921e43146100d3578063715018a6146100e85780637f1325d7146100f05780638da5cb5b14610103575b600080fd5b6003546100b6906001600160a01b031681565b6040516001600160a01b0390911681526020015b60405180910390f35b6100e66100e1366004610a46565b610177565b005b6100e6610248565b6001546100b6906001600160a01b031681565b6000546001600160a01b03166100b6565b6100e6610122366004610a46565b6102bc565b6100e6610135366004610aa5565b6107f8565b6100e6610148366004610a46565b610894565b6100e661015b366004610a46565b61095c565b61016960025481565b6040519081526020016100ca565b6000546001600160a01b031633146101aa5760405162461bcd60e51b81526004016101a190610abd565b60405180910390fd5b6001600160a01b0381166102265760405162461bcd60e51b815260206004820152603860248201527f44656661756c745374616b61626c65546f6b656e56616c696461746f723a203060448201527f2d6164647265737320666163746f72792061646472657373000000000000000060648201526084016101a1565b600380546001600160a01b0319166001600160a01b0392909216919091179055565b6000546001600160a01b031633146102725760405162461bcd60e51b81526004016101a190610abd565b600080546040516001600160a01b03909116907f8be0079c531659141344cd1fd0a4f28419497f9722a3daafe3b4186f6b6457e0908390a3600080546001600160a01b0319169055565b6001600160a01b0381166103385760405162461bcd60e51b815260206004820152603760248201527f44656661756c745374616b61626c65546f6b656e56616c696461746f723a203060448201527f2d61646472657373207374616b61626c6520746f6b656e00000000000000000060648201526084016101a1565b60008190506000816001600160a01b0316630dfe16816040518163ffffffff1660e01b815260040160206040518083038186803b15801561037857600080fd5b505afa9250505080156103a8575060408051601f3d908101601f191682019092526103a591810190610a69565b60015b61041a5760405162461bcd60e51b815260206004820152603c60248201527f44656661756c745374616b61626c65546f6b656e56616c696461746f723a206360448201527f6f756c64206e6f742067657420746f6b656e3020666f7220706169720000000060648201526084016101a1565b600154600254604051636ec456ef60e11b815260048101919091526001600160a01b03808416602483015292935091169063dd88adde9060440160206040518083038186803b15801561046c57600080fd5b505afa158015610480573d6000803e3d6000fd5b505050506040513d601f19601f820116820180604052508101906104a49190610a85565b6105165760405162461bcd60e51b815260206004820152603e60248201527f44656661756c745374616b61626c65546f6b656e56616c696461746f723a206960448201527f6e76616c696420746f6b656e203020696e20446578537761702070616972000060648201526084016101a1565b6000826001600160a01b031663d21220a76040518163ffffffff1660e01b815260040160206040518083038186803b15801561055157600080fd5b505afa925050508015610581575060408051601f3d908101601f1916820190925261057e91810190610a69565b60015b6105f35760405162461bcd60e51b815260206004820152603c60248201527f44656661756c745374616b61626c65546f6b656e56616c696461746f723a206360448201527f6f756c64206e6f742067657420746f6b656e3120666f7220706169720000000060648201526084016101a1565b600154600254604051636ec456ef60e11b815260048101919091526001600160a01b03808416602483015292935091169063dd88adde9060440160206040518083038186803b15801561064557600080fd5b505afa158015610659573d6000803e3d6000fd5b505050506040513d601f19601f8201168201806040525081019061067d9190610a85565b6106ef5760405162461bcd60e51b815260206004820152603e60248201527f44656661756c745374616b61626c65546f6b656e56616c696461746f723a206960448201527f6e76616c696420746f6b656e203120696e20446578537761702070616972000060648201526084016101a1565b60035460405163e6a4390560e01b81526001600160a01b038481166004830152838116602483015286811692169063e6a439059060440160206040518083038186803b15801561073e57600080fd5b505afa158015610752573d6000803e3d6000fd5b505050506040513d601f19601f820116820180604052508101906107769190610a69565b6001600160a01b0316146107f25760405162461bcd60e51b815260206004820152603d60248201527f44656661756c745374616b61626c65546f6b656e56616c696461746f723a207060448201527f616972206e6f74207265676973746572656420696e20666163746f727900000060648201526084016101a1565b50505050565b6000546001600160a01b031633146108225760405162461bcd60e51b81526004016101a190610abd565b6000811161088f5760405162461bcd60e51b815260206004820152603460248201527f44656661756c745374616b61626c65546f6b656e56616c696461746f723a20696044820152731b9d985b1a59081d1bdad95b881b1a5cdd081a5960621b60648201526084016101a1565b600255565b6000546001600160a01b031633146108be5760405162461bcd60e51b81526004016101a190610abd565b6001600160a01b03811661093a5760405162461bcd60e51b815260206004820152603f60248201527f44656661756c745374616b61626c65546f6b656e56616c696461746f723a203060448201527f2d6164647265737320746f6b656e20726567697374727920616464726573730060648201526084016101a1565b600180546001600160a01b0319166001600160a01b0392909216919091179055565b6000546001600160a01b031633146109865760405162461bcd60e51b81526004016101a190610abd565b6001600160a01b0381166109eb5760405162461bcd60e51b815260206004820152602660248201527f4f776e61626c653a206e6577206f776e657220697320746865207a65726f206160448201526564647265737360d01b60648201526084016101a1565b600080546040516001600160a01b03808516939216917f8be0079c531659141344cd1fd0a4f28419497f9722a3daafe3b4186f6b6457e091a3600080546001600160a01b0319166001600160a01b0392909216919091179055565b600060208284031215610a57578081fd5b8135610a6281610af2565b9392505050565b600060208284031215610a7a578081fd5b8151610a6281610af2565b600060208284031215610a96578081fd5b81518015158114610a62578182fd5b600060208284031215610ab6578081fd5b5035919050565b6020808252818101527f4f776e61626c653a2063616c6c6572206973206e6f7420746865206f776e6572604082015260600190565b6001600160a01b0381168114610b0757600080fd5b5056fea2646970667358221220bbb254a161aa13df36170dbc8f23de3a15baeb07d451a0b76ab73be69c0aa03f64736f6c6343000804003344656661756c745374616b61626c65546f6b656e56616c696461746f723a2030",
  "linkReferences": {},
  "deployedLinkReferences": {}
}