{
  "_format": "hh-sol-artifact-1",
  "contractName": "DefaultRewardTokensValidator",
  "sourceName": "contracts/DexSwapRewardTokensValidator.sol",
  "abi": [
    {
      "inputs": [
        {
          "internalType": "address",
          "name": "_dexTokenRegistryAddress",
          "type": "address"
        },
        {
          "internalType": "uint256",
          "name": "_dexTokenRegistryListId",
          "type": "uint256"
        }
      ],
      "stateMutability": "nonpayable",
      "type": "constructor"
    },
    {
      "anonymous": false,
      "inputs": [
        {
          "indexed": true,
          "internalType": "address",
          "name": "previousOwner",
          "type": "address"
        },
        {
          "indexed": true,
          "internalType": "address",
          "name": "newOwner",
          "type": "address"
        }
      ],
      "name": "OwnershipTransferred",
      "type": "event"
    },
    {
      "inputs": [],
      "name": "dexTokenRegistry",
      "outputs": [
        {
          "internalType": "contract IDEXTokenRegistry",
          "name": "",
          "type": "address"
        }
      ],
      "stateMutability": "view",
      "type": "function"
    },
    {
      "inputs": [],
      "name": "dexTokenRegistryListId",
      "outputs": [
        {
          "internalType": "uint256",
          "name": "",
          "type": "uint256"
        }
      ],
      "stateMutability": "view",
      "type": "function"
    },
    {
      "inputs": [],
      "name": "owner",
      "outputs": [
        {
          "internalType": "address",
          "name": "",
          "type": "address"
        }
      ],
      "stateMutability": "view",
      "type": "function"
    },
    {
      "inputs": [],
      "name": "renounceOwnership",
      "outputs": [],
      "stateMutability": "nonpayable",
      "type": "function"
    },
    {
      "inputs": [
        {
          "internalType": "address",
          "name": "_dexTokenRegistryAddress",
          "type": "address"
        }
      ],
      "name": "setDexTokenRegistry",
      "outputs": [],
      "stateMutability": "nonpayable",
      "type": "function"
    },
    {
      "inputs": [
        {
          "internalType": "uint256",
          "name": "_dexTokenRegistryListId",
          "type": "uint256"
        }
      ],
      "name": "setDexTokenRegistryListId",
      "outputs": [],
      "stateMutability": "nonpayable",
      "type": "function"
    },
    {
      "inputs": [
        {
          "internalType": "address",
          "name": "newOwner",
          "type": "address"
        }
      ],
      "name": "transferOwnership",
      "outputs": [],
      "stateMutability": "nonpayable",
      "type": "function"
    },
    {
      "inputs": [
        {
          "internalType": "address[]",
          "name": "_rewardTokens",
          "type": "address[]"
        }
      ],
      "name": "validateTokens",
      "outputs": [],
      "stateMutability": "view",
      "type": "function"
    }
  ],
  "bytecode": "0x608060405234801561001057600080fd5b5060405161097538038061097583398101604081905261002f91610190565b600080546001600160a01b031916339081178255604051909182917f8be0079c531659141344cd1fd0a4f28419497f9722a3daafe3b4186f6b6457e0908290a3506001600160a01b0382166100f15760405162461bcd60e51b815260206004820152603e60248201527f44656661756c74526577617264546f6b656e7356616c696461746f723a20302d60448201527f6164647265737320746f6b656e2072656769737472792061646472657373000060648201526084015b60405180910390fd5b600081116101675760405162461bcd60e51b815260206004820152603360248201527f44656661756c74526577617264546f6b656e7356616c696461746f723a20696e60448201527f76616c696420746f6b656e206c6973742069640000000000000000000000000060648201526084016100e8565b600180546001600160a01b0319166001600160a01b0393909316929092179091556002556101c8565b600080604083850312156101a2578182fd5b82516001600160a01b03811681146101b8578283fd5b6020939093015192949293505050565b61079e806101d76000396000f3fe608060405234801561001057600080fd5b50600436106100885760003560e01c8063c8fe2c681161005b578063c8fe2c68146100eb578063d6d4e023146100fe578063f2fde38b14610111578063f7b4deda1461012457600080fd5b8063715018a61461008d5780637f1325d7146100975780638da5cb5b146100c757806397237337146100d8575b600080fd5b61009561013b565b005b6001546100aa906001600160a01b031681565b6040516001600160a01b0390911681526020015b60405180910390f35b6000546001600160a01b03166100aa565b6100956100e63660046106f4565b6101b8565b6100956100f9366004610664565b610253565b61009561010c366004610636565b610484565b61009561011f366004610636565b61054c565b61012d60025481565b6040519081526020016100be565b6000546001600160a01b0316331461016e5760405162461bcd60e51b81526004016101659061070c565b60405180910390fd5b600080546040516001600160a01b03909116907f8be0079c531659141344cd1fd0a4f28419497f9722a3daafe3b4186f6b6457e0908390a3600080546001600160a01b0319169055565b6000546001600160a01b031633146101e25760405162461bcd60e51b81526004016101659061070c565b6000811161024e5760405162461bcd60e51b815260206004820152603360248201527f44656661756c74526577617264546f6b656e7356616c696461746f723a20696e6044820152721d985b1a59081d1bdad95b881b1a5cdd081a59606a1b6064820152608401610165565b600255565b806102c65760405162461bcd60e51b815260206004820152603a60248201527f44656661756c74526577617264546f6b656e7356616c696461746f723a20302d60448201527f6c656e6774682072657761726420746f6b656e732061727261790000000000006064820152608401610165565b60005b8181101561047f5760008383838181106102f357634e487b7160e01b600052603260045260246000fd5b90506020020160208101906103089190610636565b90506001600160a01b03811661037d5760405162461bcd60e51b815260206004820152603460248201527f44656661756c74526577617264546f6b656e7356616c696461746f723a20302d60448201527330b2323932b9b9903932bbb0b932103a37b5b2b760611b6064820152608401610165565b600154600254604051636ec456ef60e11b815260048101919091526001600160a01b0383811660248301529091169063dd88adde9060440160206040518083038186803b1580156103cd57600080fd5b505afa1580156103e1573d6000803e3d6000fd5b505050506040513d601f19601f8201168201806040525081019061040591906106d4565b61046c5760405162461bcd60e51b815260206004820152603260248201527f44656661756c74526577617264546f6b656e7356616c696461746f723a20696e6044820152713b30b634b2103932bbb0b932103a37b5b2b760711b6064820152608401610165565b508061047781610741565b9150506102c9565b505050565b6000546001600160a01b031633146104ae5760405162461bcd60e51b81526004016101659061070c565b6001600160a01b03811661052a5760405162461bcd60e51b815260206004820152603e60248201527f44656661756c74526577617264546f6b656e7356616c696461746f723a20302d60448201527f6164647265737320746f6b656e207265676973747279206164647265737300006064820152608401610165565b600180546001600160a01b0319166001600160a01b0392909216919091179055565b6000546001600160a01b031633146105765760405162461bcd60e51b81526004016101659061070c565b6001600160a01b0381166105db5760405162461bcd60e51b815260206004820152602660248201527f4f776e61626c653a206e6577206f776e657220697320746865207a65726f206160448201526564647265737360d01b6064820152608401610165565b600080546040516001600160a01b03808516939216917f8be0079c531659141344cd1fd0a4f28419497f9722a3daafe3b4186f6b6457e091a3600080546001600160a01b0319166001600160a01b0392909216919091179055565b600060208284031215610647578081fd5b81356001600160a01b038116811461065d578182fd5b9392505050565b60008060208385031215610676578081fd5b823567ffffffffffffffff8082111561068d578283fd5b818501915085601f8301126106a0578283fd5b8135818111156106ae578384fd5b8660208260051b85010111156106c2578384fd5b60209290920196919550909350505050565b6000602082840312156106e5578081fd5b8151801515811461065d578182fd5b600060208284031215610705578081fd5b5035919050565b6020808252818101527f4f776e61626c653a2063616c6c6572206973206e6f7420746865206f776e6572604082015260600190565b600060001982141561076157634e487b7160e01b81526011600452602481fd5b506001019056fea2646970667358221220e05eca9f7b1b1fb0b00c3a8c733b95f64d9ee9737aabfd706f16ccd3523f0c0864736f6c63430008040033",
  "linkReferences": {},
  "deployedLinkReferences": {}
}